S01700004763634170706C69636174696F6E312E737265635B
S11300000C9444000C9461000C9461000C94610005
S11300100C941D050C94CE040C9461000C946100A6
S11300200C9461000C9461000C94A7040C94580483
S11300300C9461000C94F8050C941F060C94D005E4
S11300400C9461000C9461000C9461000C946100A8
S11300500C9461000B0141015901FC00FC002901D1
S1130060FC00FC00FC00FC00FC001F01FC00FC0088
S1130070FC00FC00FC001501FC00FC00FC00FC0082
S1130080FC00FC00FC00100111241FBECFE5D8E0E9
S1130090DEBFCDBF10E0A0E6B0E0EAE8FEE002C0BB
S11300A005900D92A83AB107D9F720E0A8EAB0E08C
S11300B001C01D92AB3CB207E1F70E94B6000C945C
S11300C043070C940000CF92DF92EF92FF920E94BC
S11300D030030E9444030E945D030E9479036B0174
S11300E07C016CE081E00E94FD0283E790E00E94C5
S11300F069026CE081E00E94FD02C701B6010E9422
S11301007C060E94780286E0C816D104E104F1045A
S1130110F0F080916100813059F441E065E082E0C3
S11301200E94BD0340E067E082E00E94BD0319C065
S1130130809162008130A9F441E067E082E00E948E
S1130140BD0340E065E082E00E94BD030AC040E0D8
S113015067E082E00E94BD0340E065E082E00E9427
S1130160BD03FF90EF90DF90CF90089560E082E0B0
S11301700E94190361E082E00E94190341E065E0F6
S113018082E00E94900341E067E082E00E949003D5
S113019041E064E082E00E94900341E066E082E096
S11301A00E9490030E94DF0161E080E00E94FD0252
S11301B086E790E00E94690261E081E00E94FD020E
S11301C085E890E00E9469026AE081E00E94FD02F5
S11301D08FE890E00E94690240E062E083E00E94C0
S11301E0440540E060E875E280E090E00E948B0501
S11301F00E94FE030E9420030E94CC058093A80065
S113020090E0FC01E154F109EA31F105A8F7E65D5B
S1130210FF4F0C94230760E082E00E941D03ECCFA3
S113022063E082E00E941D03E7CF64E082E00E9465
S1130230EA0340E066E082E00E94BD03DDCF66E0B1
S113024082E00E94EA0340E064E082E00E94BD0391
S1130250D3CF68E080E00E94FD0282E990E00E9432
S113026069021092610081E08093620040E065E0E1
S113027082E00E94BD0341E067E082E00E94BD038A
S1130280BBCF68E080E00E94FD028BE990E00E9411
S113029069021092620081E08093610041E065E0B0
S11302A082E00E94BD0340E067E082E00E94BD035B
S11302B0A3CF61E082E00E941D0380916000813041
S11302C0A1F467E00E94FD0284EA90E00E946902C2
S11302D068EC70E080E090E00E940D0483E690E01A
S11302E00E9453040E94050416C0811114C067E0E3
S11302F081E00E94FD028BE890E00E9469020E9466
S11303004D0440E067E082E00E94BD0340E065E008
S113031082E00E94BD039091600081E08927809370
S113032060006ACFCF93C82F40E063E080E00E9472
S1130330BD0398B38C2F82958F70282F27708C2F34
S11303408695869586958071822B987E892B88BBAD
S113035041E062E080E00E94BD038FE99FE00197E5
S1130360F1F700C0000040E062E080E00E94BD03BD
S11303708FE19EE40197F1F700C0000088B39C2F41
S11303809770887E892BCC0FC071C82BC8BB41E005
S113039062E080E00E94BD038FE99FE00197F1F7DE
S11303A000C0000040E062E080E00E94BD038FE1F5
S11303B09EE40197F1F700C00000CF91089541E059
S11303C063E080E00E94900341E062E080E00E94EC
S11303D0900341E060E081E00E94900341E061E02D
S11303E081E00E94900341E062E081E00E9490037A
S11303F041E064E081E00E9490032FEF89E698E1F8
S1130400215080409040E1F700C0000083E30E9447
S1130410920182E30E94920188E20E9492018CE0A0
S11304200E94920182E00E94920186E00E94920161
S113043081E00E9492010895CF93C82F41E063E0C8
S113044080E00E94BD0398B38C2F82958F70282F73
S113045027708C2F8695869586958071822B987E41
S1130460892B88BB41E062E080E00E94BD038FE9F4
S11304709FE00197F1F700C0000040E062E080E0F7
S11304800E94BD038FE19EE40197F1F700C00000D4
S113049088B39C2F9770887E892BCC0FC071C82B92
S11304A0C8BB41E062E080E00E94BD038FE99FE0A9
S11304B00197F1F700C0000040E062E080E00E9494
S11304C0BD038FE19EE40197F1F700C00000CF91D6
S11304D00895CF93DF93EC018881882331F021962E
S11304E00E941C0289918111FBCFDF91CF91089565
S11304F04F925F926F927F92AF92BF92CF92DF92B0
S1130500EF92FF921F93CF93DF93CDB7DEB72A9775
S11305100FB6F894DEBF0FBECDBF0E9446066B0136
S11305207C01FE0131968AE0DF011D928A95E9F78C
S1130530C114D104E104F10421F480E30E941C02FB
S113054048C0FF2084F48DE20E941C02F094E094E1
S1130550D094C094C11CD11CE11CF11CC114D10461
S1130560E104F104B1F110E00F2EFAE04F2E512C0A
S1130570612C712CF02D01C0182FAA24A394B12C46
S1130580AC0EBD1EA10EB11C17FDBA94C701B60175
S1130590A30192010E940407F501608381E0810FA9
S11305A0C22ED32EE42EF52EC114D104E104F1049D
S11305B019F7112374F0E1E0F0E0EC0FFD1FE10FF7
S11305C0F11D17FDFA958081805D0E941C02115077
S11305D092F72A960FB6F894DEBF0FBECDBFDF9117
S11305E0CF911F91FF90EF90DF90CF90BF90AF908D
S11305F07F906F905F904F900895813059F028F06C
S1130600823069F0833081F0089580E8860F0E947B
S11306109201089580EC860F0E949201089584E966
S1130620860F0E949201089584ED860F0E94920124
S1130630089541E00E94900308950E94EA030895FA
S113064041E067E083E00E94900340E066E083E0DD
S11306500E94900388B799B7806299BF88BF0895B4
S113066041E067E083E00E94BD032FEF80E792E062
S1130670215080409040E1F700C0000040E067E076
S113068083E00E94BD0308958EB580688EBD8EB54B
S113069080648EBD8EB581608EBD88B799B785FFA5
S11306A0FCCF86B597B59093AC008093AB0088B728
S11306B099B7806299BF88BF08958EB580688EBD52
S11306C08EB58F7B8EBD8EB581608EBD88B799B790
S11306D085FFFCCF86B597B59093AA008093A900B7
S11306E088B799B7806299BF88BF1DBC1CBC1EBC6B
S11306F008952091A9003091AA008091AB009091B7
S1130700AC00281B390BA8E2B7E80E94290720E0B7
S113071038E448EE51E00E94E206CA01B9010895A6
S11307204130A1F4E82FF0E0EE0FFF1FE559FF4F31
S11307300190F081E02D208181E090E002C0880FDB
S1130740991F6A95E2F7822B80830895411114C0A2
S1130750E82FF0E0EE0FFF1FE559FF4F0190F08105
S1130760E02D208181E090E002C0880F991F6A95F6
S1130770E2F780958223808308954130A1F4E82F25
S1130780F0E0EE0FFF1FED59FF4F0190F081E02DD7
S1130790208181E090E002C0880F991F6A95E2F7FA
S11307A0822B80830895411114C0E82FF0E0EE0FEE
S11307B0FF1FED59FF4F0190F081E02D208181E072
S11307C090E002C0880F991F6A95E2F78095822312
S11307D080830895E82FF0E0EE0FFF1FED59FF4FDF
S11307E00190F081E02D208181E090E002C0880F2B
S11307F0991F6A95E2F782278083089583B78F7BD8
S113080083BF83B7877F83BF089583B7856083BF22
S113081089B7816089BF789408950F931F939B01D2
S1130820AC01A8EEB3E00E9438078B019C010F2EA7
S1130830FEE03695279517950795FA95D1F7F02D93
S11308400093B9001093BA002093BB003093BC000E
S1130850DC01CB01689415F8B695A7959795879513
S11308601694D1F78823B1F0682F609562BF809108
S1130870B9009091BA00A091BB00B091BC00019660
S1130880A11DB11D8093B9009093BA00A093BB0041
S1130890B093BC001F910F91089583B783BF89B7AC
S11308A08E7F89BF08959093C6008093C5000895F4
S11308B01F920F920FB60F9211242F933F934F93D1
S11308C05F936F937F938F939F93AF93BF93EF93B4
S11308D0FF938091B1009091B200A091B300B091C8
S11308E0B4000196A11DB11D8093B1009093B20094
S11308F0A093B300B093B4004091B9005091BA00F2
S11309006091BB007091BC0084179507A607B707D8
S113091069F4E091C500F091C60009951092B10008
S11309201092B2001092B3001092B400FF91EF91B4
S1130930BF91AF919F918F917F916F915F914F91F3
S11309403F912F910F900FBE0F901F9018951F92FB
S11309500F920FB60F9211242F933F934F935F93EF
S11309606F937F938F939F93AF93BF93EF93FF9373
S1130970E091BF00F091C0000995FF91EF91BF9104
S1130980AF919F918F917F916F915F914F913F9123
S11309902F910F900FBE0F901F9018951F920F92DA
S11309A00FB60F9211242F933F934F935F936F933E
S11309B07F938F939F93AF93BF93EF93FF93809114
S11309C0AD009091AE00A091AF00B091B00001963F
S11309D0A11DB11D8093AD009093AE00A093AF0014
S11309E0B093B0004091B5005091B6006091B7004B
S11309F07091B80084179507A607B70769F4E091CA
S1130A00C300F091C40009951092AD001092AE009D
S1130A101092AF001092B000FF91EF91BF91AF918F
S1130A209F918F917F916F915F914F913F912F9102
S1130A300F900FBE0F901F9018951F920F920FB634
S1130A400F9211242F933F934F935F936F937F9350
S1130A508F939F93AF93BF93EF93FF93E091C7005E
S1130A60F091C8000995FF91EF91BF91AF919F91CB
S1130A708F917F916F915F914F913F912F910F9043
S1130A800FBE0F901F90189590B5906890BD90B5CB
S1130A909F7B90BD811108C0529880B58B7F80BD2B
S1130AA080B58D7F80BD27C0813041F4529880B5D8
S1130AB08B7F80BD80B5826080BD1DC0823041F4D3
S1130AC0529880B5846080BD80B58D7F80BD13C091
S1130AD0833041F4529880B5846080BD80B58260D3
S1130AE080BD09C0843039F4529A80B5846080BDD9
S1130AF080B5826080BD80B590E1699FB00111240A
S1130B00682B60BD80B5440F440F440F482B40BD93
S1130B10549A539A089520B5206820BD41111FC0EE
S1130B20DC01CB01880F991FAA1FBB1F880F991FD7
S1130B30AA1FBB1F9C01AD01220F331F441F551F69
S1130B40220F331F441F551F60E074E284EF90E0CE
S1130B500E94E206215031093AB929B90895413079
S1130B60D1F4DC01CB01880F991FAA1FBB1F880F8A
S1130B70991FAA1FBB1F9C01AD01220F331F441FE5
S1130B80551F60E074E284EF90E00E94E206215079
S1130B9031093AB929B908955F9BFECF8CB1089504
S1130BA01F920F920FB60F9211242F933F934F93DE
S1130BB05F936F937F938F939F93AF93BF93EF93C1
S1130BC0FF935D98E091BD00F091BE000995FF91FF
S1130BD0EF91BF91AF919F918F917F916F915F91B1
S1130BE04F913F912F910F900FBE0F901F9018952A
S1130BF01F920F920FB60F9211242F933F934F938E
S1130C005F936F937F938F939F93AF93BF93EF9370
S1130C10FF93E091C900F091CA000995FF91EF910B
S1130C20BF91AF919F918F917F916F915F914F9100
S1130C303F912F910F900FBE0F901F9018951F9208
S1130C400F920FB60F9211242F933F934F935F93FC
S1130C506F937F938F939F93AF93BF93EF93FF9380
S1130C60E091C100F091C2000995FF91EF91BF910D
S1130C70AF919F918F917F916F915F914F913F9130
S1130C802F910F900FBE0F901F9018950E944D0644
S1130C906894B1110C94DC0608950E94C10688F092
S1130CA09F5798F0B92F9927B751B0F0E1F0660F2C
S1130CB0771F881F991F1AF0BA95C9F714C0B1306D
S1130CC091F00E94DB06B1E008950C94DB06672FD7
S1130CD0782F8827B85F39F0B93FCCF3869577959C
S1130CE06795B395D9F73EF4909580957095619585
S1130CF07F4F8F4F9F4F0895E89409C097FB3EF4B0
S1130D0090958095709561957F4F8F4F9F4F992354
S1130D10A9F0F92F96E9BB279395F69587957795D2
S1130D206795B795F111F8CFFAF4BB0F11F460FF92
S1130D301BC06F5F7F4F8F4F9F4F16C0882311F0EA
S1130D4096E911C0772321F09EE8872F762F05C0FE
S1130D50662371F096E8862F70E060E02AF09A9599
S1130D60660F771F881FDAF7880F9695879597F98E
S1130D70089557FD9058440F551F59F05F3F71F087
S1130D804795880F97FB991F61F09F3F79F08795EE
S1130D900895121613061406551FF2CF4695F1DF77
S1130DA008C0161617061806991FF1CF8695710507
S1130DB0610508940895E894BB2766277727CB013B
S1130DC097F90895A1E21A2EAA1BBB1BFD010DC0C1
S1130DD0AA1FBB1FEE1FFF1FA217B307E407F507E7
S1130DE020F0A21BB30BE40BF50B661F771F881FC3
S1130DF0991F1A9469F760957095809590959B0159
S1130E00AC01BD01CF010895052E97FB1EF400949B
S1130E100E941B0757FD07D00E94E20607FC03D07F
S1130E204EF40C941B0750954095309521953F4FF7
S1130E304F4F5F4F089590958095709561957F4FC2
S1130E408F4F9F4F0895EE0FFF1F0590F491E02DF3
S1130E500994A29FB001B39FC001A39F700D811D8F
S1130E601124911DB29F700D811D1124911D0895AF
S1130E700E942907A59F900DB49F900DA49F800DFB
S10D0E80911D11240895F894FFCF8A
S1130E8A0101013B003800350032003A00370034D2
S1130E9A0031002020005354415445203A466F72D1
S1130EAA7761726400434353203A204F46460064F4
S1130EBA3D00466F727761726420004261636B770A
S10B0ECA617264004F4E200028
S9030000FC
